:1000000000800020BD010000DD5F0000A15F000056
:10001000A15F0000A15F0000A15F0000A15F0000E0
:10002000A15F0000A15F0000A15F0000DD5F000094
:10003000DD5F0000A15F0000DD5F0000915F000058
:10004000DD5F0000DD5F0000DD5F0000DD5F0000C0
:10005000DD5F0000DD5F0000DD5F0000DD5F0000B0
:10006000DD5F0000DD5F0000DD5F0000DD5F0000A0
:10007000DD5F0000DD5F0000DD5F0000DD5F000090
:10008000DD5F0000DD5F0000DD5F0000DD5F000080
:10009000DD5F0000DD5F0000DD5F0000DD5F000070
:1000A000F12B0000012C0000DD5F0000DD5F00008F
:1000B000DD5F0000DD5F0000DD5F0000DD5F000050
:1000C000DD5F0000DD5F0000DD5F0000DD5F000040
:1000D000DD5F0000DD5F0000DD5F0000DD5F000030
:1000E000DD5F0000DD5F0000DD5F0000DD5F000020
:1000F000DD5F0000E97B0000DD5F00005183000050
:10010000DD5F0000D5880000DD5F0000DD5F0000DE
:10011000DD5F0000DD5F0000DD5F0000DD5F0000EF
:10012000DD5F0000DD5F0000DD5F0000DD5F0000DF
:10013000DD5F0000DD5F0000DD5F0000DD5F0000CF
:10014000DD5F0000DD5F0000DD5F0000DD5F0000BF
:10015000DD5F0000DD5F0000DD5F0000DD5F0000AF
:10016000DD5F000055660000DD5F0000DD5F000020
:10017000DD5F0000DD5F0000DD5F0000DD5F00008F
:10018000DD5F0000DD5F0000DD5F0000DD5F00007F
:10019000DD5F0000DD5F0000DD5F0000DD5F00006F
:1001A000DD5F0000DD5F0000DD5F0000DD5F00005F
:1001B000DD5F0000DD5F000045520000564B4CF251
:1001C000205210B51A804DF628121A8000BF00BFC9
:1001D00005F008FF514B4FF010621A60504A9A60C8
:1001E000504ADA60504A136813F4807304D14F49BF
:1001F0000B604FF4A85313604D4B1A78110703D5C9
:100200001A7842F008021A704A4B4B492A221A7097
:100210004A4A4B4B8B4204D252F8040F43F8040B6A
:10022000F8E7484B484900228B4202D243F8042B9E
:10023000FAE74649464A002352F8230041F82300D2
:1002400001336F2BF8D1434B434A802103F8011B44
:100250009342FBD1414B3D4A1A60414B8A221A70AE
:10026000A3F5805324225A70A0221A709A7992071B
:10027000FCD59A79D406FCD43A4A937903F00C035E
:10028000082B384BF9D105221A7143225A719A79F9
:100290009006FCD5334A9179324B4906FBD5324A58
:1002A0004FF0817111600521516020221A709A79F6
:1002B00002F00C020C2AFAD12C4B2D4A1A602D4B5D
:1002C0002D4A1A6000225A60072243F8042C2B4A58
:1002D000C3F80C2D62B606F07BF8144B1B68DA07E6
:1002E00005D5274805F038FF264B274A1A60274BCB
:1002F0001B785B0609D5234C234B22689A4204D114
:100300001F4805F029FF002323600AF00FFD05F0C8
:100310006FFE05F09BFDFEE70E2005403080044097
:10032000823F04000100002B10D0034014D0034092
:1003300002D0074000E0074048C9FF1F040A01003F
:1003400020BDFF1F48C9FF1F84DCFF1F00B8FF1F2F
:100350000000000000E400E05FE400E008ED00E0E1
:1003600000500640004006404480044004800440A1
:10037000C010050014E000E03F190100000020203B
:100380001EF4D7581CE00340A5C3945A00F0074060
:10039000FFFFFFFFFFFFFFFFFFFFFFFFFFFFFFFF6D
:1003A000FFFFFFFFFFFFFFFFFFFFFFFFFFFFFFFF5D
:1003B000FFFFFFFFFFFFFFFFFFFFFFFFFFFFFFFF4D
:1003C000FFFFFFFFFFFFFFFFFFFFFFFFFFFFFFFF3D
:1003D000FFFFFFFFFFFFFFFFFFFFFFFFFFFFFFFF2D
:1003E000FFFFFFFFFFFFFFFFFFFFFFFFFFFFFFFF1D
:1003F000FFFFFFFFFFFFFFFFFFFFFFFFFFFFFFFF0D
:10040000FFFFFFFFFFFFFFFFFFFFFFFFDEF9FFFF23
:1004100010B5054C237833B9044B13B10448AFF33E
:1004200000800123237010BD48C9FF1F0000000099
:10043000080A0100084B10B51BB108490848AFF382
:1004400000800848036803B910BD074B002BFBD0A0
:10045000BDE81040184700BF000000004CC9FF1F56
:10046000080A010048C9FF1F0000000010B504463B
:1004700000F5816003F008FF204610BD10B504466A
:1004800000F5047003F000FF204610BD2DE9F8438D
:1004900007460A21174803F0D3FF054630BB002466
:1004A000144EDFF85C90DFF85C800A21304603F0E0
:1004B000C7FF0546D0B90F210F4801F0C5FB142036
:1004C00005F070FF0D49214003D5013961F00301AA
:1004D0000131094801F0B8FB142005F063FF013435
:1004E000042CE2DD17B1C9F80080DEE72846BDE83C
:1004F000F88300BF7CD8FF1F68CAFF1F030000807D
:100500000CED00E00400FA0538B53D4B1B7843F0D4
:1005100001023C49096811F4805F01D093424DD13A
:1005200037490A7043F005033649096811F4805FC2
:1005300001D093424CD1324A1370334801F05AFB38
:10054000324801F063FF0020FFF7A0FF304C014666
:10055000204601F041FF40F2D24005F03DFC2D4B1A
:1005600018606378002B3DD143E00022294B1A60CC
:10057000274D2946284801F0DFF9284C204602F093
:10058000FDF9204602F0B0F8224C236802462946C5
:10059000234800F067FF23682249194003D5013939
:1005A00061F003010131184801F04EFB1E4B1B683E
:1005B000002B24DD144801F065FB38BD4FF4A27018
:1005C0001A4908604FF4007001F57F610860A7E7E1
:1005D0004FF4A271164A11604FF4007102F57F6268
:1005E0001160A8E70322134B1A6080100E4B1860AD
:1005F000BEE701220F4B1A600328B6DCB8E738BD0E
:1006000069D9FF1F3C80044068CAFF1F50CAFF1F02
:1006100080CAFF1F40D1FF1F68C9FF1F44D1FF1FC1
:10062000B0CCFF1F0300008064C9FF1F18B0044056
:1006300014B0044000BEFF1F10B5044683100B4ADF
:100640001360002B02DD0A4801F01CFB0949214020
:1006500003D5013961F003010131054801F0F4FAD5
:10066000E1B240F2D24005F0CDFB10BD64C9FF1FDE
:1006700068CAFF1F0300008008B5074908680130F9
:10068000064B1A68920090FBF2F302FB130008601D
:10069000FFF7D2FF08BD00BF40D1FF1F00BEFF1F04
:1006A000F8B52C4801F070FA04462B4801F0D4FE4E
:1006B00004F04005ADB204F480739BB24BB10F213E
:1006C000264801F0A9FA322005F06CFE244A254B99
:1006D0001A6004F080039BB233B1234A137883F08D
:1006E00001031370012602E014F408762ED0194B92
:1006F0001E4F196907EB01115A680A311A4801F0B7
:10070000F9F8BB782BB1134B1B7813B1164800F0E6
:10071000CFFDC5B1FFF7B0FF01210F4801F086FE04
:1007200014B9114B5B7833B10A4B9A68104B1968B6
:100730000D4801F033F80E4B1A680E4B1968074844
:1007400001F0ACFAF8BD002EE6D1E9E7002DE7D0C4
:10075000E0E700BF68C9FF1F50CAFF1F68CAFF1F3C
:100760000400FA050CED00E0B0CCFF1F80CAFF1FAB
:1007700040D1FF1F64C9FF1F2DE9F04F87B005F07E
:10078000E7FAAC4B1B680193019AAB4B1A60AB4B79
:1007900000221A705A70AA4959605A735A611A7322
:1007A0001A61A84B1A681AB9A74A1A6005E01A46D6
:1007B0005369002BFBD1A44B5361A04B00229A61DB
:1007C0001A815A81A14959609A83DA831A625A625E
:1007D000DA621A865A865A639949996383F84120E6
:1007E0009A6483F840205A64964B1A681AB9984A5A
:1007F0001A6005E01A465369002BFBD1944B5361F4
:100800008E4B0022DA649A87DA8790499963A3F8BD
:100810005020A3F852205A659A651A66A3F86420FE
:10082000A3F866209A668649D96683F87520DA6748
:1008300083F874209A67834B1A681AB9854A1A603C
:1008400005E01A465369002BFBD1824B53617B4B69
:100850000022C3F88020A3F87020A3F872207B49FF
:10086000D966A3F88420A3F88620C3F88820C3F8AB
:100870008C20C3F89420A3F89820A3F89A20C3F8FA
:100880009C206F49C3F8A01083F8A920C3F8B020BA
:1008900083F8A820C3F8AC206A4B1A681AB96E4ACC
:1008A0001A6005E01A465369002BFBD16A4B53616D
:1008B000624B0022C3F8B420A3F8A420A3F8A6201A
:1008C0006249C3F8A010A3F8B820A3F8BA20C3F86F
:1008D000BC20C3F8C020C3F8C820A3F8CC20A3F8DC
:1008E000CE20C3F8D0205649C3F8D41083F8DD20B9
:1008F000C3F8E42083F8DC20C3F8E020514B1A68E9
:100900001AB9564A1A6005E01A465369002BFBD102
:10091000524B5361494B0022C3F8E820A3F8D8207A
:10092000A3F8DA204949C3F8D410A3F8EC20A3F8BF
:10093000EE20C3F8F020C3F8F420C3F8FC20A3F89D
:100940000021A3F80221C3F804213D49C3F808118E
:1009500083F81121C3F8182183F81021C3F814215A
:10096000384B1A681AB93E4A1A6005E01A465369AC
:10097000002BFBD13A4B5361304B0022C3F81C21B2
:10098000A3F80C21A3F80E213049C3F80811A3F8ED
:100990002021A3F82221C3F82421C3F82821C3F879
:1009A0003021A3F83421A3F83621C3F83821244993
:1009B000C3F83C1183F84521C3F84C2183F8442146
:1009C000C3F848211F4B1A681AB9264A1A6005E075
:1009D0001A465369002BFBD1224B5361174B00225F
:1009E000C3F85021A3F84021A3F842211749C3F8C6
:1009F0003C11A3F85421A3F85621C3F85821C3F899
:100A00005C21C3F86421A3F86821A3F86A21C3F824
:100A10006C210B49C3F8701183F87921C3F8802148
:100A200083F87821C3F87C21064B1A68FAB90E4A7C
:100A30001A6021E06CD9FF1F7CCAFF1FB0CCFF1FDA
:100A4000ACE6000034D9FF1FB4CCFF1F1C0301002B
:100A5000E8CCFF1F1CCDFF1F50CDFF1F84CDFF1F13
:100A6000B8CDFF1FECCDFF1F20CEFF1F1A465369E4
:100A7000002BFBD1934B5361934A0023C2F884317E
:100A8000A2F87431A2F876319049C2F87011A2F838
:100A90008831A2F88A31C2F88C31C2F89031C2F89C
:100AA0009831A2F89C31A2F89E31C2F8A031884951
:100AB000C2F8A411042182F8AD1102F5E671C2F862
:100AC000B41182F8AC31C2F8B0311846D2F8B41182
:100AD00041F82300013392F8AD119942F6DC7D4BC9
:100AE0001A681AB97C4A1A6005E01A465369002B45
:100AF000FBD1794B5361744A0023C2F8B831A2F894
:100B0000A831A2F8AA317549C2F8A4114FF4803176
:100B1000C2F8BC11C2F8C011C2F8C411C2F8C811A1
:100B20006B49C2F8DC11042182F8E51102F501716C
:100B3000C2F8EC1182F8E431C2F8E8311846D2F874
:100B4000EC1141F82300013392F8E5119942F6DCEB
:100B5000604B1A681AB9624A1A6005E01A4653696E
:100B6000002BFBD15E4B5361574A0023C2F8F03192
:100B7000A2F8E031A2F8E2315849C2F8DC114FF492
:100B80008031C2F8F411C2F8F811C2F8FC11C2F8B1
:100B900000124F49C2F81412042182F81D1202F506
:100BA0000F71C2F8241282F81C32C2F820321846A3
:100BB000D2F8241241F82300013392F81D12994211
:100BC000F6DC444B1A681AB9464A1A6005E01A4620
:100BD0005369002BFBD1434B53613B4A0023C2F8BE
:100BE0002832A2F81832A2F81A323C49C2F814127C
:100BF0004FF48031C2F82C12C2F83012C2F834120D
:100C0000C2F838123249C2F84C12012182F855124A
:100C100002F51971C2F85C1282F85432C2F85832E7
:100C20001846D2F85C1241F82300013392F85512AD
:100C30009942F6DC274B1A681AB92B4A1A6005E06C
:100C40001A465369002BFBD1274B53611E4A0023E0
:100C5000C2F86032A2F85032A2F852322349C2F8E8
:100C60004C1282F86832A2F874320921A2F8761286
:100C70000321A2F878125321A2F87A121C49C2F873
:100C80007C12A621A2F880121149C2F88412012117
:100C900082F88D1202F52771C2F8941282F88C3214
:100CA000C2F890321846D2F8941241F8230001336A
:100CB00092F88D129942F6DC064B1A68EAB90D4A91
:100CC0001A601FE020CEFF1FB0CCFF1F1C030100E5
:100CD000ACE6000034D9FF1F54CEFF1F040301000F
:100CE0008CCEFF1FC4CEFF1FFCCEFF1FF8020100F9
:100CF000C020B02A34CFFF1F1A465369002BFBD106
:100D0000DF4B5361DF4C0025C4F89852A4F8885299
:100D1000A4F88A52DC4BC4F8843204F5217003F045
:100D200049FF231DC4F8A03204F5D278C4F8A48288
:100D300084F8A85284F8A952C4F8AC5204F528707B
:100D400004F052FA04F13803C4F8B032C4F8B482A3
:100D500084F8B852012684F8B962C4F8BC5204F58C
:100D60002C7004F041FA04F16C03C4F8C032C4F8EA
:100D7000C48284F8C8524FF0020984F8C992C4F8BA
:100D8000CC5204F5307004F02FFA04F1A003C4F83B
:100D9000D032C4F8D48284F8D8524FF0030384F8D8
:100DA000D932C4F8DC5204F5347004F01DFA04F1B1
:100DB000D403C4F8E03204F5EE77C4F8E47284F8A2
:100DC000E85284F8E952C4F8EC5204F5387004F0A3
:100DD0000BFA04F5847BC4F8F0B2C4F8F47284F81A
:100DE000F85284F8F962C4F8FC5204F53C7004F03F
:100DF000FBF904F59E7AC4F800A3C4F8047384F8E0
:100E0000085384F80993C4F80C5304F5407004F0B7
:100E1000EBF904F5B879C4F81093C4F8147384F8A6
:100E200018534FF0030384F81933C4F81C5304F526
:100E3000447004F0D9F9C4F8208304F50578C4F8A7
:100E4000248384F8285384F82953C4F82C5304F5D8
:100E5000487004F0C9F9C4F83073C4F8348384F8D6
:100E6000385384F83963C4F83C5304F54C7004F0EB
:100E7000BBF9C4F8408304F51377C4F8447384F8CD
:100E8000485384F84953C4F84C5304F5507004F0A7
:100E9000ABF9C4F8507304F52173C4F8543384F8E3
:100EA000585384F85953C4F85C5304F5547004F053
:100EB0009BF9764F04F560733868796803C304F5CD
:100EC000627E07F1080CBCE80F00AEE80F00BCE83A
:100ED0000F00AEE80F009CE80F008EE80F0004F54D
:100EE0006E7E07F1380CBCE80F00AEE80F009CE8FE
:100EF0000F008EE80F0004F5767E07F1580CBCE871
:100F00000F00AEE80F009CE80F008EE80F002022D3
:100F1000294604F57E700AF0A9FA04F5836E07F1FC
:100F2000580CBCE80F00AEE80F009CE80F008EE8FC
:100F30000F0004F5876E07F1780CBCE80F00AEE8EF
:100F40000F009CE80F008EE80F0004F58B6E9837B9
:100F50000FCFAEE80F0097E80F008EE80F004C4B64
:100F6000C4F87C34C4F880543223C4F88434494B28
:100F7000C4F88834484F3B680593059BC4F88C340B
:100F8000231DC4F860333433C4F864333433C4F8F5
:100F900068333433C4F86C333433C4F87033C4F872
:100FA00074B3C4F878A3C4F87C93C4F878543B4C69
:100FB0003B49204600F0AAFEDFF80C814246394941
:100FC000204609F09DFE384C3849204601F074FA5D
:100FD00042463749204609F093FE364800F0F2FDBC
:100FE000354C26706670354B6360A360E360256105
:100FF000082104F1140000F069F8072104F1400011
:1010000000F064F8062104F16C0000F05FF809219B
:1010100004F1980000F05AF804F1C40003F070FBEA
:101020003B680493049BC4F8CC3084F8D050C4F8D7
:10103000D450234BC4F8D8300023C4F8DC30C4F8B3
:10104000E030C4F8E4301F4C204603F059FB09217E
:10105000204603F05DFB2821204603F06FFB3B6830
:101060000293029BA3600A23E36025746574A57450
:101070003B680393039B636107B0BDE8F08F00BF3B
:1010800034CFFF1FB0CCFF1F10030100B0E60000FB
:10109000C520803F0AD7A33C6CD9FF1F80CAFF1F21
:1010A00088F300007D04000044D1FF1F98F3000086
:1010B0006D04000068CAFF1F68C9FF1F00001042CE
:1010C00018FCFFFF50CAFF1FFCBDFF1F30B40024F7
:1010D0000460002242601025058104614FF07E55B6
:1010E00045618461C461074C0462446280F8282031
:1010F00080F8292080F82A200A2280F82B20C1605D
:1011000030BC704718FCFFFFF8B504460D46164684
:1011100080F829301146284609F0A2FD10B1266159
:10112000656101E0256166612169606909F0D2FAB3
:101130004FF07E5109F0D0FA064601464FF08C4040
:1011400009F086FC0746A0610E49304609F06AFDA9
:1011500068B194F8293053B1012384F828300A4942
:10116000384609F075FC09F0ABFD208101E0102341
:101170002381A1694FF07E5009F06AFCE06125608F
:10118000F8BD00BF000048430000A0402DE9F04139
:10119000044690F82A6066B30023436090F82B3031
:1011A0005BB10025207B04F037FD63681844606064
:1011B000013594F82B30AB42F4DC626892FBF3F318
:1011C000636022899342BCBF002363606068636AE6
:1011D000C31A002BB8BF5B429A424BDA606209F037
:1011E0002FFBE16909F080FB216909F075FA2060A5
:1011F00043E0007B04F010FD80F30D05656094F87A
:10120000297017B3284609F01BFBE16909F06CFB54
:1012100009F030FD09F014FB216909F05DFA09F0CD
:1012200029FD09F00DFB8046216809F0F1FC20BB87
:10123000636AEB1A002BB8BF5B42228993421CDD24
:101240006562C4F800803E4617E0236AEB1A002B63
:10125000B8BF5B42228993420EDD284609F0F0FABE
:10126000E16909F041FB216909F036FA2060256245
:10127000012602E0002600E03E463046BDE8F0814F
:1012800010B504460529B8BF0521B1F5FA6FA8BF0E
:101290004FF4FA610846C4F8841409F0CDFA014607
:1012A0004FF07E5009F0D4FBC4F8880410BD00BF95
:1012B00082B0054B1B680193019BC0F88C3401235D
:1012C000437002B0704700BF6CD9FF1FF8B50646E7
:1012D0000C4615460021204609F0A4FC00283FD109
:1012E0002149204609F0BCFC002833D15DB102E061
:1012F0001D4C00E00024204609F0BCFCD6F87834F0
:1013000053F82000F8BD204608F044FE07F09CFB8F
:1013100009F044F9054609F093FA0146204609F020
:10132000D9F907467E2D10DCD6F8783453F82540DD
:1013300003EB85032146586809F0CCF9394609F0DA
:10134000D3FA214609F0C8F9F8BDD6F87834D3F8B5
:10135000FC01F8BD002DF8D0CAE700250027E3E71F
:10136000002DFAD0C6E700BF0000FE422DE9F04F85
:1013700083B08A4600F5577600F5757700F55F79FA
:1013800047F6FF7B4FF00008019056F8044F01220A
:1013900057F8041F0198FFF799FF0546A4F818B005
:1013A000002109F03FFC30B90D49284609F058FCEE
:1013B00010B10B4D00E000250A49284609F094FAC7
:1013C0004FF07C5109F088F909F07AFCA062C4F86A
:1013D0001C80A4F82CA04E45D7D103B0BDE8F08FF7
:1013E000A655AC464B243E4710B5D0F88034043B9C
:1013F0000B4A134003D5013B63F007030133EE337F
:1014000050F8234000F5577300F55F7153F8042F2F
:1014100014638B42FAD10421FFF7A8FF10BD00BF6F
:101420000700008008B5D0F88034032B02DDFFF7F9
:10143000DBFF08BD03F5E07330F91310FFF796FFEB
:1014400008BD00BF10B5C0F880144FF08044034BB6
:101450001C60FFF7E7FF024B1C6010BD88E100E055
:1014600008E100E0F8B504460F4616461D46322155
:10147000234803F0CDFDF9882046FFF701FF3B78B4
:10148000237004F5577304F55F704FF0804153F8F3
:10149000042F11628342FAD14FF48043C4F8BC3167
:1014A000C4F8F431C4F8C031C4F8F831C4F8C43118
:1014B000C4F8FC31C4F8C831C4F8003247F67053A0
:1014C000C4F82C32C4F830320023C4F83432C4F8E3
:1014D00038320623A4F87632A4F87A324FF08042EC
:1014E000C4F87C22A4F8803204F5137003F028FAC3
:1014F000C4F8786429462046FFF7A4FFF8BD00BF72
:101500000082FF1F70B50446E23150F82150D0F838
:101510003814284609F0E8F90646694909F0A0FBA5
:1015200030B96849304609F07DFB10B1654E00E0E6
:10153000634E4FF08F41304609F0D6F909F09AFB1F
:10154000C4F8BC01D4F83C14284609F0CDF906468D
:101550005B4909F085FB30B95A49304609F062FB16
:1015600010B1584E00E0564E4FF08F41304609F012
:10157000BBF909F07FFBC4F8C001D4F84014284639
:1015800009F0B2F906464E4909F06AFB30B94D49F7
:10159000304609F047FB10B14A4E00E0484E4FF08C
:1015A0008F41304609F0A0F909F064FBC4F8C4018A
:1015B000D4F84414284609F097F90646404909F042
:1015C0004FFB30B93F49304609F02CFB10B13D4E7E
:1015D00000E03B4E4FF08F41304609F085F909F0AD
:1015E00049FBC4F8C801D4F84814284609F07CF92E
:1015F0000646334909F034FB30B93249304609F028
:1016000011FB10B12F4E00E02D4E4FF08F413046B0
:1016100009F06AF909F02EFBC4F8F401D4F84C146F
:10162000284609F061F90646254909F019FB30B949
:101630002449304609F0F6FA10B1224E00E0204E5F
:101640004FF08F41304609F04FF909F013FBC4F811
:10165000F801D4F85014284609F046F9064618490E
:1016600009F0FEFA30B91749304609F0DBFA10B13B
:10167000144E00E0124E4FF08F41304609F034F91D
:1016800009F0F8FAC4F8FC01D4F85414284609F01B
:101690002BF905460A4909F0E3FA30B90949284609
:1016A00009F0C0FA10B1074D00E0054D4FF08F4131
:1016B000284609F019F909F0DDFAC4F8000270BDF6
:1016C00000FEFF4600FEFFC62DE9F04F85B08246C2
:1016D00001914378E3B12E4B1B6803930398DAF82A
:1016E0008C34C01A09F0A8F8DAF8881409F0FCF86C
:1016F00001464FF07E5008F0EDFF0090002109F008
:1017000091FA38B100238AF801300023009301E0F8
:10171000002300930AF5757854460AF57D77002674
:101720004FF0000BB94659F8041F009809F0DCF897
:10173000014658F8040F08F0CDFFC4F818040199C9
:1017400008F0CAFF002201465046FFF7BFFD0546DC
:10175000D4F86073594609F065FA30B90D49284646
:1017600009F07EFA10B10B4D00E05D460A492846AB
:1017700009F0BAF84FF07C5108F0AEFF09F0A0FA7A
:10178000B86201360434082ECDD105B0BDE8F08F23
:101790006CD9FF1FA655AC464B243E4770B582B0AE
:1017A00004460D461646437863B1144B1B680193FB
:1017B000019BD0F88C249B1AD0F884249A429CBFB9
:1017C000002343704FF080420D4B1A60D4F88034F0
:1017D000AB4204D0C4F880542046FFF723FE3146C4
:1017E0002046FFF771FF29462046FFF78BFE4FF09A
:1017F0008042044B1A6002B070BD00BF6CD9FF1F5D
:1018000088E100E008E100E02DE9F04780469246DB
:101810008D1E00F5767400F57E792E46002736F988
:10182000020FFF280AD009F00BF8514608F054FFC8
:101830002060216C08F04EFF2062013704344C45D3
:10184000EDD107F2151758F8271008F5876308F54A
:101850008B60002435F9022FFF2A14BF19601C6029
:1018600004338342F6D1BDE8F08700BF2DE9F04F85
:1018700083B0054601928E1E00F5767400F57A79E4
:10188000B046002738F9020FFF2819D008F0D8FF1A
:10189000019908F021FF83462060D5F87C1409F0F7
:1018A00023F800902061D4F840A05146584608F033
:1018B00011FF20625146009808F00CFF20630237A8
:1018C00004344C45DED107F2151755F8271005F5FD
:1018D000876305F58965002036F9022FFF2A1ABFB4
:1018E0001960196118600433AB42F5D103B0BDE84B
:1018F000F08F00BF08B5037813B9FFF785FF08BD67
:10190000FFF7B4FF08BD00BF70B50446C0F8D4109F
:10191000084608F095FF06460025012302462946A1
:1019200004F16C00FFF7F0FB01233246294604F175
:101930009800FFF7E9FB70BDF8B505460C460D2091
:1019400004F03CF90021082004F048FC05F1C4062D
:101950000821304602F0DCFE0521304602F0EEFEA2
:10196000617A2846FFF7D0FFE3782B7023796B70FC
:10197000607908F065FF4FF07C5108F0ADFE064637
:10198000E778207A08F05CFF314608F0A5FE3B4678
:101990000246314605F11400FFF7B6FB2379034AEE
:1019A000002105F14000FFF7AFFBF8BD0000404209
:1019B00070B504466C30FFF7E9FB04F19800FFF7BF
:1019C000E5FBD4F89810E06E08F086FE0646D4F8E1
:1019D000D450002109F026F950B9681E08F030FFF4
:1019E00005460146304609F03BF910B9354600E09E
:1019F0000025284609F03EF92061D4F8D8309842F5
:101A00001ABFC4F8D8002020002070BDF8B50446E5
:101A10001430FFF7BBFB054604F14000FFF7B6FBAF
:101A20000646002D4FD100284AD152E008F0B2FA04
:101A300007F00AF808F0FAFD014660604FF0010572
:101A4000D4F8E40009F0E4F808B14FF00005ADB2B5
:101A500001E060600125A6B163787BB1384608F0EB
:101A600099FA06F0F1FF08F0E1FDA060D4F8E0106B
:101A700009F0CEF828B945F0020502E0A76045F06C
:101A80000205A168606808F027FEE06008F082FAAD
:101A900006F0DAFF06460F46D4F8DC0008F07AFAC2
:101AA00002460B463046394608F030FD88B945F00D
:101AB00004053046394608F0B9FDC4F8DC0008E0FA
:101AC000276C0025C8E7276C60692378002BADD10F
:101AD000BFE72846F8BD00BF30B587B0044600F127
:101AE000C405284602F02CFE284602F05FFE40B1F5
:101AF000244B1B680093009BC4F8CC30012384F86E
:101B0000D030284602F05AFE38B31E4B1B680193B2
:101B1000019BD4F8CC209B1A092B09D9194B1B68BF
:101B20000293029B9B1AB3F57A7F38BF40200AD3F9
:101B3000144B1B680393039B9A1AB2F57A7F94BFE8
:101B400000208020FFE7002384F8D0300D4B1B6875
:101B50000493049BC4F8CC3012E094F8D03073B1F5
:101B6000084B1B680593059BD4F8CC001B1A41F267
:101B7000883083428CBF4FF48070002000E000204A
:101B800007B030BD6CD9FF1F70B50546FFF710FFD9
:101B900006462846FFF73AFF04462846FFF79CFF13
:101BA0003443204380B22B7833B100F004039BB25E
:101BB00013B140F4007070BD10F0010F18BF40F475
:101BC000007070BD10B483B0034600220270074A53
:101BD00012680192019A4260054A00F1080407CA9E
:101BE00084E80700184603B010BC70476CD9FF1F8B
:101BF000ACF7000008B50121062004F0EFFA01213E
:101C0000052004F0EBFA0121042004F0E7FA012199
:101C1000032004F0E3FA08BD10B50C4601F0010101
:101C2000032004F0A9FAC4F34001042004F0A4FA4C
:101C3000C4F38001052004F09FFAC4F3C00106201C
:101C400004F09AFA10BD00BF10B50C46B1FA81F14C
:101C50004909032004F090FA012C14BF002101214E
:101C6000042004F089FA022C14BF00210121052070
:101C700004F082FA032C14BF00210121062004F095
:101C80007BFA10BD82B001230370034B1B680193E4
:101C9000019B436002B070476CD9FF1F10B582B042
:101CA0004B1E012B22D8174B1B680093009B02315F
:101CB00044681B1B50F82110994220D8114B1B6817
:101CC0000193019B4360037883F0010303704BB1E0
:101CD0000D49114003D5013961F003010131FFF7CE
:101CE000B3FF0CE00F21FFF7AFFF08E006491140FA
:101CF00003D5013961F003010131FFF7A5FF02B0FF
:101D000010BD00BF6CD9FF1F03000080F8B504466A
:101D10000F4600230370437083700122C27002716A
:101D2000242242713222C2802722027243720B4D5A
:101D30004FF48076324629460A3004F08FF8324656
:101D4000A91904F5857004F089F804F5047002F00F
:101D50008DFAC4F80C722046F8BD00BFB8F7000039
:101D600010B400F1080300F5847403F11001B3F915
:101D7000022123F8022F8B42F9D10B468C42F4D179
:101D80001023437210BC704770B588B00546C24C32
:101D9000D0F80C12204602F095FC1323D5F80C2243
:101DA0002146684602F0EAFB9DF8043085F81432BB
:101DB000029BC5F8183208AA12F8143D85F81C32A7
:101DC00005F21D2305F22A2012F8011F03F8011B5A
:101DD0008342F9D1079BC5F82C32684602F054FAC9
:101DE00005F50474D5F810325B683C22AB492046F7
:101DF0009847204603F0F0FAD5F810325B683C2291
:101E0000A74920469847204603F0E6FAD5F8103255
:101E10005B683D22A34920469847204603F0DCFA40
:101E2000D5F810325B683D229F49204698472046EE
:101E300003F0D2FAD5F810325B683C229B49204669
:101E40009847204603F0C8FA994ED5F810325B68DF
:101E50000022314620469847204603F0BDFAD5F8C7
:101E600010325B683E22934920469847204603F093
:101E7000B3FAD5F810325B683E228F492046984766
:101E8000204603F0A9FAD5F810325B683E228B4950
:101E900020469847204603F09FFAD5F810325B6839
:101EA0003E22874920469847204603F095FAD5F808
:101EB00010325B683D22834920469847204603F054
:101EC0008BFAD5F810325B680022314620469847DD
:101ED000204603F081FAD5F810325B6828227A494F
:101EE00020469847204603F077FAD5F810325B6811
:101EF0003322764920469847204603F06DFAD5F8FC
:101F000010325B682F22724920469847204603F022
:101F100063FAD5F810325B6833226E492046984741
:101F2000204603F059FAD5F810325B6819226A4945
:101F300020469847204603F04FFAD5F810325B68E8
:101F40000022314620469847204603F045FAD5F84E
:101F500010325B681522614920469847204603F0FD
:101F60003BFAD5F810325B6815225D492046984748
:101F7000204603F031FAD5F810325B68192259492E
:101F800020469847204603F027FAD5F810325B68C0
:101F90001922554920469847204603F01DFAD5F8E6
:101FA00010325B681A22514920469847204603F0B8
:101FB00013FAD5F810325B681A224D49204698472B
:101FC000204603F009FAD5F810325B681D22494912
:101FD00020469847204603F0FFF9D5F810325B6899
:101FE0001922454920469847204603F0F5F9D5F8CF
:101FF00010325B681922414920469847204603F079
:10200000EBF9D5F810325B6818223D492046984715
:10201000204603F0E1F9D5F810325B6818223949FF
:1020200020469847204603F0D7F9D5F810325B6870
:102030001922354920469847204603F0CDF9D5F8B6
:1020400010325B681822314920469847204603F039
:10205000C3F9D5F810325B6813222D492046984702
:10206000204603F0B9F9D5F810325B681D222949E2
:1020700020469847204603F0AFF9D5F810325B6848
:102080002622254920469847204603F0A5F92046F8
:1020900002F01EF908B070BD7CD8FF1FB8F900002F
:1020A000F8F9000038FA000078FA0000B8FA0000E9
:1020B00034FA0000F8FA000038FB000078FB00005A
:1020C000B8FB0000F8FB000038FC000064FC0000D6
:1020D00098FC0000C8FC0000FCFC000018FD00009B
:1020E00030FD000048FD000064FD000080FD0000A0
:1020F0009CFD0000B8FD0000D8FD0000F4FD0000CC
:1021000010FE00002CFE000048FE000064FE0000EF
:1021100080FE000094FE0000B4FE00002DE9F047B0
:10212000B0B005460021417208A803F02DFB012341
:10213000D5F80C229F49684602F020FA9DF8043039
:1021400085F81432029BC5F8183230AA12F8B43D53
:1021500085F81C3205F21D2305F22A2012F8011F12
:1021600003F8011B8342F9D1079BC5F82C3268465E
:1021700002F08AF800263746DFF85092DFF85082E6
:10218000DFF850A200E0012605F50474204602F0B5
:102190008BF8002800F0FD80204601F0EFFFC1B26F
:1021A0005B2903D16B7A0F2BEDD9F9E0212900F0DF
:1021B000EB80012E2AD12C290ED16C7A08A803F0CD
:1021C000D7FB07EBC40405EB44046081414608A833
:1021D00003F0F8FA0137D7E75D2912D16C7A08A825
:1021E00003F0C6FB07EBC40405EB440460814146E1
:1021F00008A803F0E7FA6B7A01336B7200273E46BA
:10220000C2E708A803F026FB0126BDE7022EBBD1DA
:102210000A2940F0B98020210DEB010003F062FB98
:10222000064649460CA803F0AFFA0CA908A803F02B
:102230003BFB04460CA803F05BFA14B101236B705E
:102240009CE0514610A803F09FFA10A908A803F0DB
:102250002BFB044610A803F04BFAECB10123AB7042
:10226000002E40F38B80324608A914A803F078FBB7
:1022700014A803F07DFBE88014A803F039FAEB887A
:10228000042B02D80523EB8078E0B3F5FA6F75D9FB
:102290004FF4FA63EB8071E0474918A803F074FA31
:1022A00018A908A803F000FB044618A803F020FAB8
:1022B000C4B1002E62DD324608A91CA803F050FB11
:1022C0001CA803F055FB28721CA803F011FA2B7A06
:1022D0000B2B02D80C232B7250E0482B4ED94823ED
:1022E0002B724BE0354920A803F04EFA20A908A82C
:1022F00003F0DAFA044620A803F0FAF914B1012336
:102300002B703BE02E4924A803F03EFA24A908A82C
:1023100003F0CAFA044624A803F0EAF974B3002EC5
:102320002ADD324608A9684603F01AFB254928A889
:1023300003F02AFA28A9684603F0ECFA044628A814
:1023400003F0D6F9002C02DD00232B7110E01E49AA
:102350002CA803F019FA2CA9684603F0DBFA04460E
:102360002CA803F0C5F9002C02DD0023EB702B71C3
:10237000684603F0BDF901E00023EB70414608A870
:1023800003F020FA0026FFE608A803F063FA02260D
:10239000FAE6204601F09CFF08A803F0A9F906E040
:1023A000012E3FF42EAF022E7FF4EEAEECE730B0FC
:1023B000BDE8F0877CD8FF1F64FF00006CFF0000C1
:1023C00074FF000080FF000088FF000054FF000041
:1023D00034FA00005CFF000010B5044611B9FFF7A5
:1023E000BFFC10BDD0F80C12074802F05FF918B11D
:1023F0002046FFF793FE10BD2046FFF7C5FC2046A0
:10240000FFF78CFE10BD00BF7CD8FF1F08B501216F
:102410000B2003F0E3FE0121092003F0DFFE08BDDD
:1024200008B50B2003F0A8FE08BD00BF30B583B08F
:1024300005460C460174092003F09EFE21462846FD
:10244000FFF7EEFF24B1034B1B680193019BAB60C8
:1024500003B030BD6CD9FF1F10B584B00446037CB7
:10246000CBB902F06DF9204602F0A0F9A07420B1BA
:10247000104B1B680193019B63610E4B1B68029319
:10248000029B6169591A13298CBF00210121204642
:10249000FFF7C6FF0BE0074B1B680393039B8268A3
:1024A0009B1AC2689A4202D20021FFF7BFFF04B014
:1024B00010BD00BF6CD9FF1F38B504460D4600F5AE
:1024C000816001F0D3FEC4F800520023C4F8043444
:1024D000204638BD70B59CB00C46464904A803F0B0
:1024E00053F904A9204603F015FA054604A803F0A1
:1024F000FFF8002D32DD404908A803F045F908A98E
:10250000204603F007FA054608A803F0F1F8002D6D
:102510000DDD2B4600222146684603F001FA68468D
:1025200003F02EFA0446684603F0E2F803E0204682
:1025300003F026FA04463149204608F089FA30496A
:1025400008F086FA07F026FD02460B4600204FF001
:10255000804106F001FB08F069F848E029490CA821
:1025600003F012F90CA9204603F0D4F905460CA893
:1025700003F0BEF8002D33DD224910A803F004F962
:1025800010A9204603F0C6F9054610A803F0B0F8DC
:102590002B460022214614A803F0C2F914A803F028
:1025A000EFF9064614A803F0A3F86A1C214618A800
:1025B00003F0D6F918A803F0E3F9044618A803F0CD
:1025C00097F80021304608F023FB68B90021204627
:1025D00008F01EFB50B92146304608F039FA06E0F3
:1025E000204603F0CDF902E0002000E000201CB0FE
:1025F00070BD00BF14FD00001CFF00000000C842B9
:102600000000404190FF000070B582B00546FFF722
:1026100061FF0646204C23685B680A221F4920465A
:102620009847D5F80414204602F022FF23685B681F
:1026300004221B4920469847304607F0ABFC042390
:10264000009302460B46204602F01EFF204602F091
:10265000C3FED5F8044405EB8403C3F804624FF0CD
:102660008041304608F0DEFA80B10134C5F80444F8
:102670007F2C0DDD084C23685B6849220949204600
:102680009847204602F0A8FE012002E0012000E069
:10269000002002B070BD00BF54DAFF1F94FF00009D
:1026A000A0FF0000A8FF000008B508460C4908F08C
:1026B00011F807F06FFC02460B4607A1D1E90001B3
:1026C00006F04AFA0022074B07F0B8FC07F0AEFF0D
:1026D00008BD00BFAFF30080000000A08FF3F03F03
:1026E00000008A4200807B402DE9F04F83B0824693
:1026F000D0F80434022B6BDD00EB8303D3F80432F3
:1027000001933C49184608F097FA60B13A4C2368A7
:102710005B682422394920469847204602F05CFE37
:102720004FF07E530193DAF80474AAF1040B6FF0B2
:1027300044052E46284608F083F80446384608F03B
:102740007FF80146204608F083F907F023FC06F0E5
:102750007BF980460C46002200234046214607F0C4
:10276000FDFE10B904F1004300E0234696FBF7F4A8
:1027700007FB14644046194607F010FF07F0F8FB0A
:1027800080468946019807F005FC42464B4606F014
:10279000E3F907F04BFF002E0ADA0146184808F06B
:1027A00057F901463C4494FBF7F307FB134403E05D
:1027B000134908F099F801460AEB8404D4F804029E
:1027C00008F092F84BF8040F01353B2DB1D10DE024
:1027D000051F0024204608F033F801465046FFF755
:1027E00063FF45F8040F0134802CF3D1504603B049
:1027F000BDE8F08F77CC2B3254DAFF1FF4FF0000D6
:102800000000DC432DE9F04790B080460123D0F86A
:1028100000225749684601F0B1FE9DF8043088F85F
:102820000C34029BC8F8103410AA12F8343D88F812
:10283000143408F2154308F2224012F8011F03F87D
:10284000011B8342F9D1079BC8F82434684601F084
:102850001BFD4FF07E53C8F804320126C8F804640B
:1028600044490CA802F090FF002108A802F08CFF58
:10287000002508F58164DFF8FC90DFF8FCA002E099
:10288000012500E001252746204601F00DFD002826
:1028900059D0204601F072FCC1B225B1B1F10A0550
:1028A00018BF0125EFE7212910D1032EE8D10E9B97
:1028B000012BE7D90CA94046FFF7A6FE002842D11C
:1028C00049460CA802F07EFF0125DCE7012E16D157
:1028D0000A2910D10E9B23B9514608A802F072FFB5
:1028E00003E00CA908A802F063FF49460CA802F017
:1028F00069FF0226C7E70CA802F0ACFFC3E7022E6F
:102900000FD10A2909D10CA803F032F828B349469F
:102910000CA802F057FF0326B5E70CA802F09AFFB7
:10292000B1E7032EAFD10A2909D10CA94046FFF720
:102930006BFE40B949460CA802F044FFA3E70CA87F
:1029400002F088FF9FE7384601F0C2FCD8F8044443
:10295000012CD4BF0024012400E0002408A802F0C8
:10296000C7FE0CA802F0C4FE204610B0BDE8F087F8
:102970007CD8FF1F34FA00001C00010010B504468B
:10298000D0F80012044801F091FE18B12046FFF77C
:1029900039FF10BD002010BD7CD8FF1F90F83920F2
:1029A00090F83800101A704790F8383090F83920B5
:1029B0009A4205D95A1C80F838200344187E704783
:1029C0004FF0FF30704700BF90F8383090F8392052
:1029D0009A4286BF1B18187E4FF0FF30704700BF29
:1029E000704700BFB0F85E307BB190F85D30202BAF
:1029F00003D901230371002070475A1C80F85D2021
:102A0000184480F83B10012070470020704700BF39
:102A100038B5B0F85E30BBB10546144690F85D306D
:102A2000C3F12102A24202D201202871144605F10D
:102A30003B002246184403F011FA95F85D30234418
:102A400085F85D30204638BD002038BD10B50446FD
:102A50000269D378DBB213F0100F05D01021D170CA
:102A600013F0400F03D110BD13F0400F2DD013F021
:102A7000040F1BD000233C4A137084F85D30636E52
:102A80001BB1984794F85D302BB9012384F85D3071
:102A9000002384F83B302369D0229A70236994F88C
:102AA0003B201A71012384F85C300AE001222E4B8E
:102AB0001A70002384F839302369C0229A70236980
:102AC0001B7923690222DA7010BD917811F0100F82
:102AD0001BD013F0010F13D190F85C3090F85D100B
:102AE000994207D9591C80F85C10034493F83B3095
:102AF000137101E0002313712369D0229A702FE033
:102B0000C023937003691B792AE0002380F86030AA
:102B1000164B984209D1596993F861300B4403224E
:102B20001349187A03F09AFB0BE0124B984208D134
:102B3000596993F861300B4403220F49187A03F066
:102B40008DFB23691B79DBB294F839201F2A07D843
:102B50000549097821B1511C84F8391022441376B3
:102B600023690222DA7010BDD8D5FF1FDCD5FF1F04
:102B7000D12B00006CD5FF1FE12B000010B50446DF
:102B80000369DB7813F0200F0FD1426990F86130B0
:102B90001344187A03F096FAA36EC3B1002284F8A6
:102BA000382094F83900984710BD90F86030013310
:102BB000DBB280F86030012B02D890F85F3033B977
:102BC000626994F861301344187A03F07BFA10BDFF
:102BD00008B50248FFF7D2FF08BD00BFDCD5FF1FD4
:102BE00008B50248FFF7CAFF08BD00BF6CD5FF1F3C
:102BF00008B50248FFF72AFF08BD00BFDCD5FF1F5C
:102C000008B50248FFF722FF08BD00BF6CD5FF1FC3
:102C100010B4104B00221A714FF47A7098601A7336
:102C20000D4919600D4C1C610D4C5C6183F86120ED
:102C300083F862200B4B1A7198601A7319600A4965
:102C400019610A49596183F8612083F8622010BC38
:102C5000704700BFDCD5FF1F6C000100006006401C
:102C6000240001006CD5FF1F0070064044000100E5
:102C7000184A136843F480531360174B174A1A60BD
:102C8000174ADA6002F180421A61164A1A60164B3E
:102C90001B7813F0010F07BF4FF41072134B4FF462
:102CA0000072134B1A60104B1B7813F0020F4FF495
:102CB00000720CBF0F4B104B1A600B4B1B7813F0BC
:102CC000040F07BF4FF410720C4B4FF400720C4B03
:102CD0001A6070473C80044000C0024001401F0061
:102CE0000110003800001F8069D9FF1F18B0044090
:102CF00008C004401CB004400CC0044014B00440A0
:102D000004C00440084B1A6842F480621A604FF015
:102D10000042DA62FF225A631A46D36A002BFCDAB9
:102D2000014B986BC0B2704700C00240064B1A6856
:102D300042F480621A604FF00042DA6258631A4629
:102D4000D36A002BFCDA704700C0024008B50528A2
:102D50001ED8DFE800F003080D1115194FF03842B6
:102D60000E4B1A6017E04FF038420C4B1A6012E01D
:102D70000B4A0A4B1A600EE00A4A084B1A600AE036
:102D8000094A064B1A6006E0084A044B1A6002E042
:102D9000074A024B1A60FFF76BFF08BD64D6FF1F9E
:102DA000000002B8000002380110013801000238AA
:102DB0000540013808B50121007803F0DDF9114B19
:102DC0001B78F3B100220F4B1A700F4B1B78C3B165
:102DD00013F0010F03D00D4B1A680D4B1A600A4B0C
:102DE0001B7813F0020F03D0084B5A68094B1A6086
:102DF000054B1B7813F0040F03D0044B9A68064B65
:102E00001A6008BD68D6FF1F60D6FF1F54D6FF1F8B
:102E100000E100E004E100E008E100E010B5244B2F
:102E20001B78002B3ED10122214B1A70214B1B68CD
:102E3000214A1278002A28D072B61F4A127812F05E
:102E4000010F07D01D490C681D4A126822401D4C15
:102E500022600A60184A127812F0020F07D01A494D
:102E60000C68174A52682240164C62600A60124A87
:102E7000127812F0040F07D014490C68104A9268B7
:102E80002240104CA2600A6062B6114AD2689A428F
:102E900008D00F4A0F491160D36043F0804313619B
:102EA0000D4B13600021007803F066F910BD00BFE0
:102EB00068D6FF1F64D6FF1F60D6FF1F80E100E0C9
:102EC00048D6FF1F54D6FF1F84E100E088E100E0F0
:102ED00000C0024001401F0000001F8070B582B09A
:102EE0000E460B4B1B680093009C094DA4B2FFF7E4
:102EF00009FFFF2808D02B680193019B9BB21B1B85
:102F0000B342F4DB002000E0012002B070BD00BF3E
:102F10006CD9FF1FF8B505460F4616464FF496715B
:102F2000FFF7DCFF47F04000FFF700FF182426FA08
:102F300004F0C0B2FFF7FAFE083C14F1080FF6D116
:102F400027B1082F14BFFF20872000E09520FFF74E
:102F5000EDFE0024FFF7D6FE687010F0800F03D05E
:102F60000134B4F5807FF5D1F8BD00BF2DE9F04FF5
:102F700087B005460191002383700270794B1B686E
:102F80000393039FBFB20121104603F0F5F801211E
:102F9000287803F023F90121287803F0EDF8724A2C
:102FA000136843F4805313600620FFF7CFFE6F4B86
:102FB0001B686F4A1278002A28D072B66C4A1278C1
:102FC00012F0010F07D06B4908686B4A1268024083
:102FD0006A4802600A60664A127812F0020F07D04F
:102FE00067490868644A52680240644842600A605F
:102FF0005F4A127812F0040F07D0624908685E4AEF
:10300000926802405D4882600A6062B65E4AD26899
:103010009A4208D05C4A5D491160D36043F0804316
:1030200013615B4B13600A24FF263046FFF77EFED8
:10303000013C14F0FF04F8D14D4B1B78C3B113F0E1
:10304000010F03D04D4B1A68524B1A60484B1B7846
:1030500013F0020F03D0494B5A684F4B1A60444B90
:103060001B7813F0040F03D0444B9A684B4B1A6043
:103070002846FFF7D3FE4FF00008DFF8E8904246FD
:1030800041462846FFF746FF06466870012809D0EA
:10309000D9F800300493049BDB1B9BB2B3F5FA6FA5
:1030A000EDD958E04FF4D57208212846FFF732FFDA
:1030B00010F0040F04D00123AB704FF0000A0FE0B2
:1030C0004FF00408FFF71EFE687008F1FF3313F09D
:1030D000FF08F7D1AA283ED10223AB704FF0804AF7
:1030E0004FF000094FF03708DFF878B04A46414604
:1030F0002846FFF70FFF524629212846FFF70AFF0F
:10310000687048B1DBF800300593059BDB1B9BB270
:10311000B3F5FA6FEAD91EE0AB78022B13D1002287
:103120003A212846FFF7F6FEA8B9FFF7EBFD00F0BD
:10313000C000C02804BF0323AB70FFF7E3FDFFF717
:10314000E1FDFFF7DFFD2846FFF734FE0198FFF7AA
:10315000FDFD344602E02846FFF72CFE204607B06E
:10316000BDE8F08F6CD9FF1F3C80044064D6FF1F80
:1031700060D6FF1F80E100E048D6FF1F54D6FF1F36
:1031800084E100E088E100E000C0024001401F004F
:1031900000001F8000E100E004E100E008E100E041
:1031A00070B582B005460E4B1B680093009C0C4E18
:1031B000A4B2FFF7A7FD6870FF2808D13368019318
:1031C000019B9BB21B1BB3F5967FF2DD04E0FE284A
:1031D00014BF0020012000E0002002B070BD00BF3D
:1031E0006CD9FF1FF8B504460D4616468378032BAD
:1031F00018BF4D02FFF712FE2A4611212046FFF7A5
:1032000089FE002846D12046FFF7CAFF002841D09A
:10321000234B244A1A60244A5A635A635A6306F5B8
:10322000FD70864213D2B11C06F5FE7E1A461E4F73
:10323000D36A13F0F00FFBD05763936B1D1201F8A4
:10324000025C01F8013C02318E45F1D100E03046CC
:1032500006F50076B0420CD2114AD36A13F0F00F93
:10326000FBD0936B191200F8021B00F8013C864258
:10327000F3D80B4B0B4A1A600B4A5A631A46D36AAF
:1032800013F0F00FFBD0064B9B6B2046FFF792FD2F
:103290000120F8BD2046FFF78DFD0020F8BD00BFDE
:1032A00000C0024000041F80FFFF0090F8B50446F4
:1032B0001E4B186840F4806018604FF00040D862E0
:1032C0005963511C02F20127DA6A002A09DBFBE785
:1032D000DA6A002A0FDBFBE7144AD36A002B15DBFE
:1032E000FBE70D4611F8016C1A6842F480621A601F
:1032F000D8625E63ECE72D781A6842F480621A6047
:10330000D8625D630231B942DED1E5E7FF20FFF705
:103310000DFDFF20FFF70AFDFFF7F4FC607000F0E1
:103320001F00052814BF00200120F8BD00C0024086
:1033300070B5044639B316460D468378032B18BF83
:103340004D02FFF76BFD2A4618212046FFF7E2FDEC
:10335000C8B93246FE212046FFF7A8FF98B14FF4C6
:1033600016712046FFF7BAFD68B100220D212046F4
:10337000FFF7D0FD38B9FFF7C5FC20B92046FFF7AD
:1033800019FD012070BD2046FFF714FD002070BD1F
:10339000014A024B1A6070470000023864D6FF1FD2
:1033A00010B5044600F108020121006A00F09AFD00
:1033B000034650B1E3693BB9A368E361637963F005
:1033C0007F036371012300E00123184610BD00BF95
:1033D00070B50646FFF7E4FF0346E0B1326AB36812
:1033E000023B157C03FA05F553691D4414794CB171
:1033F000013D281900F09EFC034660B1013C14F029
:10340000FF04F6D1336A1A7C4FF400739340B2691B
:103410001344B3610123184670BD00BF10B50446C4
:10342000006900F063FC20B1207D034B03EB4010EA
:1034300010BD002010BD00BF78D6FF1FF0B54B1E99
:1034400001F10A04202203F8012FA342FBD1013825
:10345000002507264FF0080E0A2710F8014F0CB37D
:103460002E2C04D10A2E22D075463E46F5E7144A8A
:1034700012F8013B13B19C42FAD11AE0AE421AD3C2
:10348000A4F12103DBB25D2B17D86B1CDBB20D441A
:10349000A4F16102D2B2192A9CBF203CE4B22C7084
:1034A0001D46DAE70878203818BF0120F0BD00205B
:1034B000F0BD0020F0BD0020F0BD0020F0BD00BF39
:1034C0009400010038B583791BBB0D46044691F882
:1034D0002020102A07D1022383710023C3614B8C63
:1034E0005B0183610CE0202A14D103238371496AB4
:1034F000C16100F11802284600F07AFC034648B189
:103500002562012363710022A260E26022612275BC
:1035100000E00023184638BD2DE9F04F83B0044683
:1035200001928379002B6AD088461046637913F0A4
:10353000010F67D0A369E268991A884201D98BB25A
:103540000193019B002B57D01F46DFF8F4B0DFF842
:10355000F490DFF8F4A0E368C3F30806A279022A26
:1035600004D1226A506A00EB53201AE0206A0579E0
:10357000013D05EA5325EDB25EB955B913B9E369CA
:10358000A36006E004F10802A16800F0F3FB002844
:103590003BD0226AA368023B107C834050691844E8
:1035A0002844C6F500739F42C6BF1D46ADB23D46D6
:1035B000637913F0400F02D1B5F5007F37D1D9F808
:1035C000003098422AD132E0A8440EE05E447019DF
:1035D00086420AD008F1FF32334613F8011B02F885
:1035E000011F9842F9D1801B8044E3682B44E360BB
:1035F0007F1BBFB2002FAED1BDF904001DE04FF01C
:10360000FF301AE04FF0FF3017E04FF0FF3014E0CA
:103610004FF0FF3011E04FF0FF300EE04246014620
:10362000DAF80000FFF7DEFD0028CDD1F0E7002139
:1036300000F05CFB0028C9D1EDE703B0BDE8F08FD6
:1036400078D6FF1F04BEFF1F74D6FF1F8379012B9E
:1036500014D930B583B00446C068C0F343150122C5
:103660000DF107012046FFF757FF012808D1E36855
:103670001F33E360044800EB451002E00020704770
:10368000002003B030BD00BF78D6FF1FF8B58379A6
:103690008BB382698A422DD3022B02D1C1600123F0
:1036A00029E021B900238360C360012323E0C568BA
:1036B000036A1C7C09346A1EE2404B1E23FA04F4A0
:1036C000A24200D835B9C36983600F46054600F1B0
:1036D000080601E0A41AF8E74CB13246A968286A46
:1036E00000F048FB013C03460028F5D103E0EF6001
:1036F000012300E000231846F8BD00BF38B503469B
:10370000807920B31C4693F90530002B1BDA012188
:103710002046FFF783FE0546C0B1A379012B9CBF6D
:10372000A369C361A38B4383E38B8382084B1B682C
:103730002BB100F11601183098472B8B6B826379FF
:1037400003F07F03637100F0A5FA38BD002038BD97
:103750006CD6FF1F10B50446FFF7D0FF034610B12B
:103760000023A3710123184610BD00BF8379012BEC
:1037700051D1F0B583B0427902F0020202F0FF04A9
:10378000002A4BD082698A424AD3002A49D00D468A
:103790000446C668FFF77AFF0346002841D04DB9BA
:1037A000E169206A00F000FC0346002839D00023BC
:1037B000E3611DE001AAA168206A00F0DBFAA8B16C
:1037C000206A019990F82070174B4FF6F872102F6D
:1037D00008BF134699420BD200F0E6FB30B16FF000
:1037E0007042A168206A00F02DFB08B9002318E0A0
:1037F000A561637963F07F0363712046FFF77EFF65
:10380000034670B12946B54228BF31462046FFF72E
:103810003DFF034605E0002318467047234600E0BD
:103820000023184603B0F0BDF8FFFF0F38B5204B5A
:1038300003EB4113DD7A15F0110F02D012F0420FA5
:103840002ED11546044601751A4A12680261998AFA
:103850000904C1615A8B1143C161DA7A12F018026E
:1038600004D1DB698361012383710AE0102A19D135
:1038700000F11802006A00F0BBFA0346A8B1042365
:10388000A37105F00F0363710023A360E36015F0DB
:10389000400F09D019462046FFF768FF034604E0B1
:1038A000002302E0002300E00123184638BD00BFDA
:1038B00078D6FF1F04BEFF1F2DE9F04F85B0877932
:1038C000002F40F0858098460C46054601A9104619
:1038D000FFF7B4FD00287DD0236A2B620026A66086
:1038E000E660DFF818A14FF00109E268A3699A4287
:1038F00028D2C2F3431B2046FFF7A8FE014600284A
:1039000074D00378002B67D0E52B0AD167E085F8E7
:1039100014B0DAF800302B610B78002B62D04E46E1
:10392000E3E70B2201A807F00BFD0028DDD108F02A
:103930003003302B5AD0424659462846FFF776FFCF
:10394000074653E008F01203122B4FD136B1012184
:103950002846FFF763FD044660B947E0A379022BD0
:1039600044D02046FFF734FD074600283ED0002310
:103970002B75204C20220021204607F077FD01AB5B
:1039800003CB206061601A889B782281A3721A4B56
:103990001B682BB104F10E0104F11000984707E0F9
:1039A00021232374282363740023A3730823E37360
:1039B000238A63822383E389E38200F06BF907465D
:1039C000A0B14246297D2846FFF730FF07460DE0AB
:1039D00000270BE0074609E0002E98D002E0002EF9
:1039E00083D194E708F01203122BB0D0384605B00B
:1039F000BDE8F08F78D6FF1F6CD6FF1F04BEFF1FF7
:103A000010B504460021FFF7B1FE034668B101215D
:103A10002046FFF703FD38B1E52202700023A371B1
:103A200000F038F9034600E00023184610BD00BF3F
:103A300000B58BB000238DF808300A4A01928DF84A
:103A40000A3002230A46014601A8FFF735FF034664
:103A500018B101A8FFF7D4FF034618460BB05DF874
:103A600004FB00BF8C0001002DE9F04F85B0074634
:103A700001928379012B40F0C8808946437913F085
:103A8000020F00F0C28013F0040F04D08169C368F4
:103A90008B4203D1BDE0019B33B999E0FFF7F6FDFE
:103AA000002800F0B280F6E7DDF80480DFF8C4A15A
:103AB000DFF8C4B1386AFD680479013C04EA552492
:103AC000C5F3080514F0FF042AD1002D40F0B7809B
:103AD000B96851B9FB6933B93846FFF761FC002872
:103AE00040F09C8091E0BB6098E003AA00F042F9AE
:103AF000002800F0B48003993B6A93F82000594BEA
:103B00004FF6F872102808BF1346994206D338467C
:103B1000FFF746FC002840F0818076E0B9607DE048
:103B2000C5F50076B6B2464528BF4646BB68023B9F
:103B3000027C9340426913441C44B6F5007F14D1C3
:103B4000DBF80030A34204BF4FF0FF33CBF8003066
:103B50004A462146444B1868FFF7EAFB002854D038
:103B600009F500794FF4007627E085B9FA68BB695A
:103B70009A420CD300F08EF8002846D0CBF80040D3
:103B80003A4B1B7843F00103384A137005E00121DA
:103B9000204600F0ABF8002837D05544AC19A542B8
:103BA0000BD009F1FF326B1E601E12F8011F03F8E3
:103BB000011F8342F9D1641BA144C6EB08081FFA18
:103BC00088F8FB681E44FE60B8F1000F7FF472AF06
:103BD000FB68BA69934205D9BB617B7963F07F03C7
:103BE0007B7108E0224B1B682BB1019B1BB17B79D9
:103BF00063F07F037B717B7913F0080F03D03846A5
:103C0000FFF77CFD08B1019829E001233B710020FA
:103C100025E0019B002B7FF447AFECE74646B8F563
:103C2000007F28BF4FF400763A6ABB68023B147CE1
:103C3000A34054691C44B6F5007F97D180E7C5F5D1
:103C40000076B6B2464528BF4646BB68023B047CB8
:103C5000A34044691C44B6F5007F98D170E705B0D5
:103C6000BDE8F08FF8FFFF0F74D6FF1F78D8FF1F55
:103C70006CD6FF1F78D6FF1F04BEFF1F00B583B0B0
:103C800002AB03F8011D01221946FFF7EDFE03B058
:103C90005DF804FB08B5104B1B78D3B10F4A104BED
:103CA0001968104B1868FFF743FB034690B10E4BA1
:103CB000196849B1094A0B4B1868FFF739FB0346ED
:103CC00040B10022084B1A600022034B1A700123F6
:103CD00000E00123184608BD78D8FF1F78D6FF1FE3
:103CE00004BEFF1F74D6FF1F70D6FF1F38B50D46E8
:103CF0000C4B1B6883420ED00446FFF7CBFF0346F4
:103D000070B1094A2146094B1868FFF76BFA034660
:103D100030B1044B1C60064B1978294319700123FC
:103D2000184638BD04BEFF1F78D6FF1F74D6FF1F8C
:103D300078D8FF1F10B50446FFF7ACFF034680B1EB
:103D4000094A531E02F2FF12002103F8011F934299
:103D5000FBD1064B1C60064A137843F00103137035
:103D60000123184610BD00BF78D6FF1F04BEFF1FF9
:103D700078D8FF1FC36801338B422FD370B5164626
:103D80000D460446C36990F82020102A06D103EBA3
:103D90001120154B1B68984206D10EE003EBD110A1
:103DA000114B1B6898420FD00021FFF79FFF03467D
:103DB000B8B194F82030102B06D1E9B20B4B33F890
:103DC0001130336001230CE005F07F01074B53F8FD
:103DD000213023F070433360012302E000231846B2
:103DE0007047184670BD00BF04BEFF1F78D6FF1F86
:103DF0002DE9F04383B0044602AE46F8041D914617
:103E000000254FF400780E4F324601992046FFF707
:103E1000B1FF034680B1237C08FA03F31D4494F8F4
:103E200020204FF6F873102A18BF3B46019A9A4299
:103E3000EAD3C9F800500123184603B0BDE8F08367
:103E4000F8FFFF0FF8B501293DD9C3680133994246
:103E50003BD817460C460646C56990F82030102B13
:103E600007D105EB11251B4B1B689D4207D11D4651
:103E70000FE005EBD115174B1B689D4210D00021B8
:103E80002846FFF733FF034610B396F82030102B77
:103E900005D1E1B2104B23F811702B4605E02B46FB
:103EA00004F07F010C4A42F821700C490A7842F074
:103EB00001020A70327E012A09D9B2681344084A05
:103EC0001360012304E0002302E0002300E001234B
:103ED0001846F8BD04BEFF1F78D6FF1F78D8FF1F15
:103EE00070D6FF1F2DE9F04F83B017681FB101375F
:103EF0004FF0000B06E00768012914BF4FF0000BDC
:103F00004FF0010BC36803F10108DBB1924689460B
:103F100006463C460025A0453CBF0224274601AA90
:103F200021463046FFF726FF60B1019B0BB1671CAD
:103F300003E0631CDB1B994506D001350134F368AF
:103F4000AB42E8D800232AE06FF0704221463046A9
:103F5000FFF778FF034610B3A74203D30CE02C46CB
:103F6000AF4209D2651E224629463046FFF76AFF56
:103F700003460028F3D112E0DAF8001029B13A46DE
:103F80003046FFF75FFF034648B1CAF80070BBF147
:103F9000000F03D001373760012300E001231846EA
:103FA00003B0BDE8F08F00BFF0B583B005460C4606
:103FB0000223036000260E4F01AA21462846FFF780
:103FC000D9FE88B1324621462846FFF73BFF58B15B
:103FD000019C95F820204FF6F873102A18BF3B4635
:103FE0009C42E9D3012000E0002003B0F0BD00BFF7
:103FF000F8FFFF0FF8B505464D4B196022B3144684
:10400000042A00F2888000210846FFF76FFE03466D
:10401000002800F08B80013C464B03EB041393F81F
:10402000BE3113F07F0378D104F11C02414901EB4A
:104030000212D2F80A20632A78D91C3401EB041446
:10404000D4F806400CB971E0002400212046FFF7A7
:104050004DFE0346002869D0364BB3F80B30B3F55C
:10406000007F5CD1334B1B7C002B5FD0314AD2895F
:10407000002A56D02F4A517B002954D02B76297123
:1040800000232B7401202B7C1E4600FA03F2914280
:1040900004D05A1C2A74072BF5D946E0254BDB8A3D
:1040A0000BB9244B5B6AAB60224AD0892044E8619B
:1040B000B2F81170B9B26F84127C03FB02036B6219
:1040C0004A0102F2FF1203EB62236B61194AB2F854
:1040D00013200AB9174A126AE31A134423FA06F6A0
:1040E000EE6040F6F4739E4204D80C2385F820302D
:1040F00001231BE04FF6F4739E4204D8102385F889
:104100002030012312E00B4BDB6A6B62202385F821
:10411000203001230AE0002308E0002306E000230A
:1041200004E0002302E00B4600E000231846F8BD3F
:1041300074D6FF1F78D6FF1F10B582B002AB03F80C
:10414000011D0268546801221946A04702B010BD43
:10415000C3691BB9012303710020704710B50446E1
:104160000020187192B2E069FFF77EFCE3691B79C9
:1041700013B101232371002010BD00BFC06968B1D5
:1041800000B583B001220DF10701FFF7C5F9012841
:104190000CBF9DF807004FF0FF3002E04FF0FF30FA
:1041A000704703B05DF804FBC3699BB130B583B0C1
:1041B000044601220DF107011846FFF7ADF9012869
:1041C0000AD19DF80750E069C1680139FFF75EFA2E
:1041D000284603E0002070474FF0FF3003B030BDA9
:1041E000C06918B108B5FFF789FA08BD704700BF6C
:1041F0002DE9F04104460F469046002303714FF429
:104200007A7282600373164B0360242006F0BAFDB5
:10421000E061C0B13E46054607F1200E2F463068EA
:104220007168B268F3680FC710363D467645F5D120
:10423000306838600C22414604F10D0007F0FEFCA6
:104240000023637609E0074D2B685B680722064967
:1042500028469847284601F0BFF82046BDE8F0817F
:10426000B400010054DAFF1FA40001000022027113
:104270004FF47A718160027302490160C261427336
:10428000704700BFB4000100704700BFC3690BB1A5
:10429000D86870474FF0FF30704700BFC3690BB15B
:1042A000986970470020704738B5C3696BB1044600
:1042B000FFF7F4FF05462046FFF7E8FF281A47F608
:1042C000FF73984228BF184638BD002038BD00BF94
:1042D000C36953B110B504461846FFF73BFAE069CD
:1042E00006F058FD0023E36110BD704710B58AB099
:1042F00000238DF808300A4A01928DF80A30012314
:104300000A46014601A8FFF7D7FA002814BF012486
:10431000002402D001A8FFF71DFA20460AB010BD04
:104320008C00010032B108B5FFF782FB003018BFE6
:10433000012008BD01207047F0B40C68035D2F2BED
:1043400008BF01340619035D2F2B0DD0B3B90DE062
:1043500016F8013F2F2B0AD04BB10135013407F875
:10436000013F0C2DF4D102E0002500E000250023E0
:104370005355035D2F2B06D1013404E00134137033
:1043800017460125E4E70C60005D003018BF0120EE
:10439000F0BC70472DE9F04F99B082460F46914628
:1043A000984600238DF84030244A0F928DF8423011
:1043B0008DF81C3006928DF81E3001930C460FAE1E
:1043C0004FF0010B03E006AC234634461E4602AA1A
:1043D00001A95046FFF7B0FF054680F001024346B1
:1043E000D2B202A92046C84730B9BC421CD02046F0
:1043F000FFF7B0F900201EE07DB15B4602AA21461E
:104400003046FFF759FA0546BC4211D02046FFF767
:10441000A1F9002DD8D100200DE0BC4206D02046E5
:10442000FFF798F9012006E0002004E0012002E0F7
:104430000028C8D1002019B0BDE8F08F8C00010021
:1044400038B504460A460121FEF790FDA8B1251DA6
:10445000012221462846FFF7CDFD28B9002221463A
:104460002846FFF7C7FD50B1294604F12C00FFF79D
:1044700029F8003018BF012038BD002038BD0020C9
:1044800038BD00BF2DE9F04F99B0814693460193A6
:1044900000238DF84030384A0F928DF842308DF865
:1044A0001C3006928DF81E3004310FA8FFF70AF871
:1044B0005D4606AF0FAE4FF02F084FF0000A4146A1
:1044C000284607F02FFA68B32B782F2B01D101353E
:1044D000F5E7441BE4B20C2C28BF0C2422462946E5
:1044E00002A807F0ABFB18AB234403F858AC3846DE
:1044F000FFF730F9012302AA31463846FFF7DCF90D
:1045000040B9002389F804301B4AC9F8002089F813
:1045100006302CE025443046FFF71CF933463E4672
:104520001F46CCE7CBEB0505019B1D60337989F86D
:104530000430114BC9F80030737989F80530B3792C
:1045400089F80630B368C9F80830F368C9F80C3048
:104550003369C9F81030337D89F81430B369C9F86C
:104560001830F369C9F81C30336AC9F8203048465E
:1045700019B0BDE8F08F00BF8C000100F0B59DB010
:10458000054614461F461BAB12A8FFF77BFF1B9B7B
:10459000E618E35C1BBB9DF84C308DF804303E4BB5
:1045A00000939DF84D308DF805309DF84E308DF814
:1045B0000630149B0293159B0393169B04939DF85E
:1045C0005C308DF81430189B0693199B07931A9B47
:1045D0000893324A69462846FFF70AFE59E000234D
:1045E0008DF828302C4A09928DF82A309DF84E30EB
:1045F0006BB92B4C23685B6812222A4920469847E6
:10460000204600F0E9FE2846FFF730FE41E03B4639
:10461000324612A909A8FFF74FF968B9204C236860
:104620005B680B22204920469847204600F0D4FEC4
:104630002846FFF71BFE2CE012A8FFF78BF817F0B7
:10464000060F03D00F9909A8FFF720F89DF828302E
:104650008DF80430104B00939DF829308DF805300B
:104660009DF82A308DF806300B9B02930C9B039328
:104670000D9B04939DF838308DF814300F9B0693F2
:10468000109B0793119B0893324669462846FFF713
:10469000AFFD28461DB0F0BD8C00010090FF00006A
:1046A00054DAFF1FCC000100E000010010B50C46F9
:1046B0000023034A00F12C012046FFF76BFE10BDDA
:1046C000ED42000010B50C460023034A00F12C0116
:1046D0002046FFF75FFE10BD25430000064B002279
:1046E0009A700221596083F8242083F8302003490E
:1046F000D96283F8322070477CD8FF1F8C000100FC
:10470000002202600A2181808271C271704700BF5D
:1047100010B582B00446C8B2E0710023A37101F065
:104720004FFD08B10323A371034B1B680193019B49
:10473000236002B010BD00BF6CD9FF1F818070479D
:1047400030B585B00446C07901F03AFD003018BF9D
:104750000120A27902F0F703A371C2F3400188425D
:1047600008D0114A12680192019A226083F0020374
:10477000A37114E00C490968029102992568491B4C
:10478000A588A9420BD302F00102904207D0064A45
:1047900012680392039A226083F00903A371A0793F
:1047A000C0F3C00005B030BD6CD9FF1F807900F0A8
:1047B0000900092814BF002001207047807900F00B
:1047C0000900082814BF0020012070472DE9F04F90
:1047D00083B00446002100F0E3FC0190002800F0C3
:1047E000AC80237F13B900F099FCA6E0019B181D53
:1047F00003F58276B04280F097804FF6FF7C4FF051
:10480000000E0427B04602E0804540F28D80E38B25
:10481000002B52D1237F022B15D1A38DE38343B10B
:104820004FF0030323774FF080432362C4F824E062
:10483000EAE72777E28DE283236B03F1404393FBA2
:10484000F2F36362E0E7032B09D12777E28DE2837D
:10485000236B03F1404393FBF2F36362D4E7042B31
:1048600009D14FF005032377A4F81EC0236B236200
:10487000C4F824E021E0052B02D1A4F81EC01CE0FE
:10488000062B0DD146460023237780454CD9036083
:1048900043608360103040F8043CB042F7D343E0FB
:1048A000012B0AD14FF002032377638DE3834FF08E
:1048B000804292FBF3F36362A6E7216A636A4FEAE0
:1048C000634A066845688268D0F80C900AEBA13309
:1048D00033FB06FB534433FB16F6CBEA0646534440
:1048E00033FB05F1534433FB15F5C1EA0545534449
:1048F00033FB02FB534433FB12F1CBEA0141534437
:1049000033FB09F2534433FB19F3C2EA0343066055
:1049100045608160C360226A636A13442362E38B4B
:10492000013BE38310306FE70022019D29462046BA
:1049300000F014FC284600F0F1FB03B0BDE8F08F56
:1049400072B600230362038DC38323B1012303776F
:104950000023436208E002230377428DC2834FF0B5
:10496000804393FBF2F3436262B6704710B504468E
:1049700000F004FD204610BD08B5034A0349044871
:1049800006F0BEF908BD00BFFCBDFF1F6D49000069
:10499000D0D8FF1F38B5064D064C2A46214606489A
:1049A00006F0AEF92A462146044806F0A9F938BDBA
:1049B000FCBDFF1F6D490000D8D8FF1FE0D8FF1FC6
:1049C00008B5034A0349044806F09AF908BD00BF38
:1049D000FCBDFF1F6D490000E8D8FF1F08B5034A62
:1049E0000349044806F08CF908BD00BFFCBDFF1F59
:1049F0006D490000F0D8FF1F2DE9F843074600F18C
:104A0000180600242546EDB92146384600F0C8FBBB
:104A10000546002855D03068B0F5803F51D0291D9B
:104A200005F5827E0B6830FB03F230FB13F302F3D3
:104A30000F0203F30F03C2EA034341F8043B8E4520
:104A4000F0D83EE02146384600F09EFB8446C0B3D5
:104A5000291D00F1040E306805F58278B0F5803F1D
:104A600019D105F10C010CF10C0051F8083C50F87B
:104A7000082C93FA12F341F8083C51F8043C50F822
:104A8000042C93FA12F341F8043C0830884501F1F4
:104A90000801EAD812E05EF8042B30FB02F330FB89
:104AA00012F903F30F0209F30F03C2EA03430A6882
:104AB00093FA12F341F8043B8845ECD8604600F0C5
:104AC0002DFB01340436042C9DD13DB10022294632
:104AD000384600F043FB284600F020FBBDE8F88391
:104AE00008B5002100F050FBA8B1024672B60A4B8F
:104AF000186810B91A6062B608BD084B1B681BB96C
:104B0000064B1A6062B608BD03490B60034B1A607E
:104B100062B600F003FB08BD08D9FF1FF8D8FF1FDD
:104B200038B51C4B1A68126819791B4B19701B4B4E
:104B30009A4204D3A3F5807202F5807404E0184C05
:104B400004F5807204F50074164B186898B1011DC5
:104B500047F6FF7531F9023B2B441B1122F8023B4B
:104B60009442F7D800F0DAFA0F4B19680D4A116039
:104B700000221A6005E040F2FF7322F8023B9442E3
:104B8000FBD80A4B1B781BB14FF08042084B1A60D0
:104B900038BD00BFFCD8FF1F1F800040C8B5FF1FF5
:104BA000C8B4FF1F08D9FF1FF8D8FF1F04D9FF1F83
:104BB00008E200E070B50121504800F081FB504A46
:104BC000136843F48053136080224E4B1A70002404
:104BD0004D4E01253480284601F0E4FB083424B210
:104BE000B4F5006FF6D1494B1B6813F4800F15D054
:104BF000474B1A6848F6A27393430FD1454B1A6886
:104C000040F22F339A4209D1434B1B68012B05D147
:104C1000424B1A6840F201139A4215D03B4A13687E
:104C200043F48003136001223B4B1A6040F22F32A1
:104C3000083B1A60043B48F6A3721A60384A1A60AF
:104C400040F2011210331A602C4C2368354A1A6066
:104C500023680022022018715A7101219971D971BB
:104C600018725A729A72DA721A736FF001005873DE
:104C70004FF0FF309873D873187C1A74587C6FF01B
:104C80003F005874987C0C209874D87C4020D874CD
:104C90001A755A75987D9A75D87DD9751A765A768F
:104CA0009A76DA76987F9A77D87FD977197F062116
:104CB0001977597F5A77237903F1804303F5043339
:104CC0001A70B0221A7000F0A7FA174B18702279E8
:104CD000164B1A70227902F110011548154B43F852
:104CE000210053119B0003F1604303F5614302F07F
:104CF0001F02012101FA02F21A6070BDFCD8FF1FE9
:104D00002C80044021C00C4000C00C403C8004407A
:104D100000600340046003400C60034010600340E7
:104D2000A28F0100C8B4FF1F04D9FF1F1B800040E1
:104D3000214B000000B8FF1F08B5034A034904488F
:104D400005F0DEFF08BD00BFFCBDFF1F6D49000080
:104D5000FCD8FF1F08B5034A0349044805F0D0FFFB
:104D600008BD00BFFCBDFF1F6D4900000CD9FF1F2F
:104D700008B5034A0349044805F0C2FF08BD00BF57
:104D8000FCBDFF1F6D49000014D9FF1F08B5034A81
:104D90000349044805F0B4FF08BD00BFFCBDFF1F78
:104DA0006D4900001CD9FF1F08B5034A0349044898
:104DB00005F0A6FF08BD00BFFCBDFF1F6D49000048
:104DC00024D9FF1F08B5034A0349044805F098FF9A
:104DD00008BD00BFFCBDFF1F6D4900002CD9FF1F9F
:104DE0002DE9F843B0F91830002B00F00C8104468F
:104DF00000F03EF90646002800F00581051DB4F9D3
:104E00002C30072B00F2E780DFE803F004725D9A94
:104E10002DB886CD00F5827C28467C4F4FF6FF7E6C
:104E2000E3694FEAD358C3F3CF1108F1010337F90F
:104E30001320C1EB0E0937F9183003FB09F301FB0E
:104E400002331B14B4F9182002FB03F3DB1320F820
:104E5000023BA26AE369D31848BF23F00043E36131
:104E60008445DDD1B7E0236B1BB900F057F9BDE8ED
:104E7000F88300F5827729464FF6FF70E3694FEA21
:104E8000D358D4F830C0C3F3CF1E08F10103DBB20E
:104E90003CF913203CF918C0CEEB000303FB0CF3E4
:104EA0000EFB02331B14B4F9182002FB03F3DB13CF
:104EB00021F8023BA26AE369134423F00043E36153
:104EC000B942DBD187E0831D00F58370E26912F0FF
:104ED000804F1ABF228B5242B4F9182023F8022CBB
:104EE000A26AE1690A44E26102339842EED172E0BB
:104EF00000F582702946E36943F3CF33B4F91820F3
:104F000002FB03F3DB1321F8023BA36AE2691344BB
:104F1000E3618142EFD15EE000F582702946E369EA
:104F200043F3CF33B4F9182002FB03F3DB1321F86A
:104F3000023BA26AE3699B1AE3618142EFD14AE036
:104F400000F582702946E769002FBDBF238B5B42C5
:104F50001AB2B4F91820BB0017F0804F18BF5B429B
:104F60005B0C02FB03F3DB1321F8023BA26AE3694B
:104F700003EB4203E3618142E5D12CE0831D00F5A0
:104F80008370E169226A91423ABF228B5242B4F99E
:104F9000182023F8022CA26AE1690A44E261023374
:104FA0009842EED117E000F582782F46A36AE269B5
:104FB0009A4206D2B4F918000146404200F08EFB36
:104FC000A084B4F9243027F8023BA36AE2691344B1
:104FD000E3614745EAD1B4F92E3063B106F5827139
:104FE000B5F90030B4F92E20134403F30F0325F86C
:104FF000023BA942F4D800223146204600F0AEF828
:10500000304600F08BF8BDE8F88300BFEC000100EB
:10501000C02928BFC02172B6134B1860134B002261
:105020001A605A609A60DA601A615A61D1B1F0B4BC
:1050300013460E4E01275D0903F01F0207FA02F422
:1050400056F82520224346F8252001339942F2D113
:1050500000234370013300F582709942F9D162B6A2
:10506000F0BC704762B670473CD9FF1F44D9FF1FA0
:1050700010B472B6204B196861B9596861B9996862
:1050800061B9D96861B9196961B9596961B962B61B
:1050900000202EE0184B08E0184B06E0184B04E007
:1050A000184B02E0184B00E0184BB1FA81F24FF0B8
:1050B0000040D04021EA0001196015480178013113
:1050C000C9B2017062B60C481B1A9B10C2EB4313A5
:1050D00003EB831341F67C7202EB83030D4A1268E3
:1050E000D0180124D4540C4B1B788B423CBF0A4B84
:1050F000197010BC704700BF44D9FF1F48D9FF1F6B
:105100004CD9FF1F50D9FF1F54D9FF1F58D9FF1F7B
:1051100041D9FF1F3CD9FF1F38D9FF1F427872B613
:105120000378012B02D9013B037011E050110949AA
:10513000D24302F01F024FF0004323FA02F251F86B
:105140002030134341F82030034A1378013B137099
:1051500062B6704744D9FF1F41D9FF1FC36893B19E
:1051600030B4187A90420AD158685C7A006950F8D5
:10517000245025B940F82410087801300870DB6805
:10518000002BEED130BC7047437A8B4206D90369BD
:1051900053F82100002243F8212070470020704777
:1051A00038B5437A8B4218D9036953F8214000225D
:1051B00043F821209CB12378012B12D9FFF758FF27
:1051C000054628B14FF48072211D043000F046FEE0
:1051D0002378013B2370284638BD002038BD0020CD
:1051E00038BD204638BD00BF4368427A5B7A9A4298
:1051F00010D872B60368DA6812B9D86004E01A46AB
:10520000D368002BFBD1D06002680123137242687F
:10521000137262B6704700BF084B1B785BB9D0228F
:10522000074B1A704FF08042A3F256331A600120E8
:10523000024B187070470020704700BF40D9FF1F15
:105240005EE400E0F8B5184A136843F08073136019
:10525000164A136843F001031360154B1D68154B84
:105260001C689CB1124E237A6BB1376823681B68A7
:10527000204698473368DB1B1B099AB2A280E1885D
:105280008B4288BFE2806469002CECD1084B1B681C
:105290005B1B1B099AB208490A80084909888B429E
:1052A00084BF064B1A80F8BDFCED00E0001000E062
:1052B000041000E034D9FF1F5CD9FF1F42D9FF1F43
:1052C00010B472B609B9026822B9294B1C8821466C
:1052D000002311E003790F2BF7D8254909881941DC
:1052E00011F0010FF1D003F1007303F59063B2EBFD
:1052F000431FEAD162B639E041FA03F212F0010F1E
:105300002CD101229A401443194A148062B6DAB2B1
:105310000271184C216841F002012160043C2168AF
:1053200041F002012160822413490C601A310A7095
:1053300004310A7006390A7007310A7003F10073EC
:1053400003F590635B01036000221A605A609A6063
:10535000DA601A615A619A61DA6107E00133102B51
:10536000CAD162B6002303601023037110BC7047DA
:105370005ED9FF1F408004400080004003790F2B5E
:1053800010D8094A137072B608490279012303FA4A
:1053900002F20B8823EA02030B8062B6102303712A
:1053A00000230360704700BF1A8000405ED9FF1FD2
:1053B000F8B56AB106460F461446002533681B68E7
:1053C00017F8011B304698470544013CF6D100E030
:1053D00000252846F8BD00BF00B583B0054B1B88EB
:1053E000ADF8043003685B68022201A9984703B056
:1053F0005DF804FB20030100F0B58BB022B903680F
:105400001B68C9B2984731E01646012A14BF1646F8
:105410000A2621B930228DF82520212417E02124E5
:105420003746B1FBF6F206FB1212D2B22546092A24
:1054300094BF30323732D2B20DF1280E754405F8E0
:10544000242CB1FBF7F111B1013CE4B2E9E733B12F
:10545000013CE4B20AAB23442D2203F8242C036858
:105460005B68C4F1220201A9214498470BB0F0BD4A
:1054700008B50029BABF49422D2300230A22FFF7AD
:10548000BBFF08BDFFFFFFFF2DE9F04F87B00746C8
:1054900092469B469DF8406052465B4650465946B0
:1054A00005F066F838B13B685B680322644938460A
:1054B00098470190BBE02BF000444FF0FF32614B66
:1054C0005046214605F054F878B94FF0FF325D4B55
:1054D0005046214605F02EF838B93B685B68032238
:1054E0005949384698470190A1E04FF06042574B28
:1054F0005046594605F032F838B13B685B680322E4
:10550000534938469847019091E04FF06042514B23
:105510005046594605F004F838B13B685B680322F1
:105520004B4938469847019081E0002200235046BD
:10553000594604F0F5FF18B10BF1004B012500E0CE
:105540000025002E64D00024002043490FF2E80912
:10555000D9E9008942464B4604F070FD0134E3B2BC
:105560009E42F7D828E052465B464046494604F042
:1055700065FD8046894605F039F8C0B2651CEDB27C
:1055800006AB1C4400F1300304F8103C04F0F0FCBE
:1055900002460B464046494604F09CFB804689463D
:1055A0002C46B542DFD100E001263B685B683246FD
:1055B00002A9384698473AE002460B4650465946FB
:1055C00004F08AFB8046894605F010F8044604F092
:1055D000BFFC02460B464046494604F07BFB804632
:1055E00089462B460A2221463846FFF705FF0190DF
:1055F0002E238DF808300F2E28BF0F26002ED3D073
:105600000136F6B201244FF0000ADFF850B0AAE7E5
:105610000022114B5046594604F05EFB04F0E6FFB1
:105620002B460A2201463846FFF7E6FE0190019814
:1056300007B0BDE8F08F00BF000000A09999B93F06
:1056400024030100FFFFEF7F28030100FFFFEF416C
:105650002C030100FFFFEFC10000E03F00002440E9
:10566000134B1A68E2B110B4124C82FB04015318B8
:10567000D117C1EB2343104800FB132384FB020422
:105680002244C1EB22420D4800FB02F244F2A71073
:1056900000FB0320002807DA00F10040013803E096
:1056A0000748034B18607047014B186010BC7047E7
:1056B00060D9FF1F5F0B4E831DF30100ECF4FFFF69
:1056C00042CE0C1F40B110B50446FFF7C9FFB0FB36
:1056D000F4F303FB140010BD00207047884206DA83
:1056E00010B50446081AFFF7EDFF204410BD7047BF
:1056F00010B50446006805F04DFB204610BD00BF04
:1057000038B504460D460131006805F001FF18B1B7
:1057100020606560012038BD002038BD43688B42A1
:105720000CD210B50446FFF7EBFF034650B1A36857
:105730003BB9236800221A70012303E001231846B5
:1057400070470123184610BD70B504462AB9036896
:1057500003B11A700023A36014E00E4615461146EB
:10576000FFF7DCFF48B9206818B105F013FB0023F0
:10577000236000236360A36004E0A56031462068D5
:1057800006F038F9204670BD38B5044600230360A2
:1057900043608360037341B10D46084606F090F9FB
:1057A000024629462046FFF7CFFF204638BD00BFFE
:1057B000884205D008B58A680968FFF7C5FF08BDAB
:1057C0000846704738B5044649B10D46084606F00C
:1057D00077F9024629462046FFF7B6FF01E000238D
:1057E0008360204638BD00BF2DE9F84304460E46CD
:1057F000174681680368B34207D85A18964207D201
:10580000C3EB06094FF0010804E04FF0000801E087
:105810004FF00008DFB1CD1929462046FFF77EFF83
:10582000A8B1B8F1000F0BD02368A0683A4603EB8B
:105830000901184400F012FB236800225A5505E0C4
:105840002068A3683146184406F0D4F8A5602046C5
:10585000BDE8F88310B582B004468DF8041000232B
:105860008DF80530012201A9FFF7BEFF204602B0E6
:1058700010BD00BF10B58C6883681B1B93420CD30E
:10588000036863B1096861B110462246184406F006
:1058900085F9B0FA80F0400910BD002010BD00204D
:1058A00010BD002010BD00BF08B582688B689A4209
:1058B00003D30022FFF7DEFF08BD002008BD00BFB4
:1058C0008368934207D910B50468A01806F02AF837
:1058D00020B1001B10BD4FF0FF3070474FF0FF307C
:1058E00010BD00BF08B50022FFF7EAFF08BD00BFEA
:1058F0008368934208D910B504680968A01806F0B7
:105900002DFB20B1001B10BD4FF0FF3070474FF052
:10591000FF3010BD08B50022FFF7EAFF08BD00BF49
:10592000F8B504460E469A4202D911461A460B466D
:10593000002020606060A0602073B1688A420DD8AA
:105940008B4228BF0B461D4633685F5D5855316852
:1059500011442046FFF736FF33685F552046F8BDF7
:1059600010B504468B68FFF7DBFF204610BD00BF73
:10597000006818B108B505F0C9F908BD00207047E6
:10598000006820B108B5002107F060FB08BD0020C9
:10599000704700BF394A3A49136813F0800FFBD1B2
:1059A0000B6813F0800FF7D172B6364B1B78002BC3
:1059B00062D030B4344B1D6804331C68043318685B
:1059C0000433196804331A6804331B682C442044D8
:1059D00001440A441344C3F34E0343F400432B4AE7
:1059E00013602B4B1D6804331C68043318680433A0
:1059F000196804331A6804331B682C44204401449A
:105A00000A441344C3F34E0343F40043214A136092
:105A1000214B1D6804331C6804331868043319686B
:105A200004331A6804331B682C44204401440A449C
:105A30001344C3F34E0343F40043184A1360184B56
:105A40001D6804331C680433186804331968043370
:105A50001A6804331B682C44204401440A4413444C
:105A6000C3F34E0343F400430E4A13600022054B78
:105A70001A7062B630BC704762B6704724B00340FB
:105A800024B00B4065D9FF1F38B003402CB0034051
:105A900058B0034030B0034038B00B402CB00B403E
:105AA00058B00B4030B00B4060223A4B1A70E122E4
:105AB00001331A70384B1B78082B10D1012203F1E7
:105AC000804303F56C331A60132334490B6001F5EE
:105AD000FF2101F2FC710A60314A13601FE00A2BBA
